{
	"data": {
		"bytecode": {
			"linkReferences": {},
			"object": "60806040526802b5e3af16b188000060005534801561001d57600080fd5b506106a08061002d6000396000f3fe60806040526004361061004a5760003560e01c8063047abed71461004f578063098de8201461008c5780630d8e6e2c146100b757806398d5fdca146100e2578063b60d42881461010d575b600080fd5b34801561005b57600080fd5b5061007660048036038101906100719190610318565b610117565b6040516100839190610354565b60405180910390f35b34801561009857600080fd5b506100a1610151565b6040516100ae9190610354565b60405180910390f35b3480156100c357600080fd5b506100cc610157565b6040516100d99190610354565b60405180910390f35b3480156100ee57600080fd5b506100f76101e6565b6040516101049190610354565b60405180910390f35b61011561028f565b005b6000806101226101e6565b90506000670de0b6b3a7640000848361013b919061039e565b610145919061040f565b90508092505050919050565b60005481565b60008073d4a33860578de61dbabdc8bfdb98fd742fa7028e90508073ffffffffffffffffffffffffffffffffffffffff166354fd4d506040518163ffffffff1660e01b8152600401602060405180830381865afa1580156101bc573d6000803e3d6000fd5b505050506040513d601f19601f820116820180604052508101906101e09190610455565b91505090565b60008073d4a33860578de61dbabdc8bfdb98fd742fa7028e905060008173ffffffffffffffffffffffffffffffffffffffff1663feaf968c6040518163ffffffff1660e01b815260040160a060405180830381865afa15801561024d573d6000803e3d6000fd5b505050506040513d601f19601f8201168201806040525081019061027191906104fa565b5050509150506402540be400816102889190610575565b9250505090565b60005461029b34610117565b116102db576040517f08c379a00000000000000000000000000000000000000000000000000000000081526004016102d29061064a565b60405180910390fd5b565b600080fd5b6000819050919050565b6102f5816102e2565b811461030057600080fd5b50565b600081359050610312816102ec565b92915050565b60006020828403121561032e5761032d6102dd565b5b600061033c84828501610303565b91505092915050565b61034e816102e2565b82525050565b60006020820190506103696000830184610345565b92915050565b7f4e487b7100000000000000000000000000000000000000000000000000000000600052601160045260246000fd5b60006103a9826102e2565b91506103b4836102e2565b92508282026103c2816102e2565b915082820484148315176103d9576103d861036f565b5b5092915050565b7f4e487b7100000000000000000000000000000000000000000000000000000000600052601260045260246000fd5b600061041a826102e2565b9150610425836102e2565b925082610435576104346103e0565b5b828204905092915050565b60008151905061044f816102ec565b92915050565b60006020828403121561046b5761046a6102dd565b5b600061047984828501610440565b91505092915050565b600069ffffffffffffffffffff82169050919050565b6104a181610482565b81146104ac57600080fd5b50565b6000815190506104be81610498565b92915050565b6000819050919050565b6104d7816104c4565b81146104e257600080fd5b50565b6000815190506104f4816104ce565b92915050565b600080600080600060a08688031215610516576105156102dd565b5b6000610524888289016104af565b9550506020610535888289016104e5565b945050604061054688828901610440565b935050606061055788828901610440565b9250506080610568888289016104af565b9150509295509295909350565b6000610580826104c4565b915061058b836104c4565b9250828202610599816104c4565b91507f800000000000000000000000000000000000000000000000000000000000000084146000841216156105d1576105d061036f565b5b82820584148315176105e6576105e561036f565b5b5092915050565b600082825260208201905092915050565b7f6469646e2774207265636569766520656e6f7567682076616c75650000000000600082015250565b6000610634601b836105ed565b915061063f826105fe565b602082019050919050565b6000602082019050818103600083015261066381610627565b905091905056fea2646970667358221220a523883a7680b2d067ea612e9a2275f86d37abeb36e31de969657589d23bce6064736f6c63430008110033",
			"opcodes": "PUSH1 0x80 PUSH1 0x40 MSTORE PUSH9 0x2B5E3AF16B1880000 PUSH1 0x0 SSTORE CALLVALUE DUP1 ISZERO PUSH2 0x1D JUMPI PUSH1 0x0 DUP1 REVERT JUMPDEST POP PUSH2 0x6A0 DUP1 PUSH2 0x2D PUSH1 0x0 CODECOPY PUSH1 0x0 RETURN INVALID PUSH1 0x80 PUSH1 0x40 MSTORE PUSH1 0x4 CALLDATASIZE LT PUSH2 0x4A JUMPI PUSH1 0x0 CALLDATALOAD PUSH1 0xE0 SHR DUP1 PUSH4 0x47ABED7 EQ PUSH2 0x4F JUMPI DUP1 PUSH4 0x98DE820 EQ PUSH2 0x8C JUMPI DUP1 PUSH4 0xD8E6E2C EQ PUSH2 0xB7 JUMPI DUP1 PUSH4 0x98D5FDCA EQ PUSH2 0xE2 JUMPI DUP1 PUSH4 0xB60D4288 EQ PUSH2 0x10D JUMPI JUMPDEST PUSH1 0x0 DUP1 REVERT JUMPDEST CALLVALUE DUP1 ISZERO PUSH2 0x5B JUMPI PUSH1 0x0 DUP1 REVERT JUMPDEST POP PUSH2 0x76 PUSH1 0x4 DUP1 CALLDATASIZE SUB DUP2 ADD SWAP1 PUSH2 0x71 SWAP2 SWAP1 PUSH2 0x318 JUMP JUMPDEST PUSH2 0x117 JUMP JUMPDEST PUSH1 0x40 MLOAD PUSH2 0x83 SWAP2 SWAP1 PUSH2 0x354 JUMP JUMPDEST PUSH1 0x40 MLOAD DUP1 SWAP2 SUB SWAP1 RETURN JUMPDEST CALLVALUE DUP1 ISZERO PUSH2 0x98 JUMPI PUSH1 0x0 DUP1 REVERT JUMPDEST POP PUSH2 0xA1 PUSH2 0x151 JUMP JUMPDEST PUSH1 0x40 MLOAD PUSH2 0xAE SWAP2 SWAP1 PUSH2 0x354 JUMP JUMPDEST PUSH1 0x40 MLOAD DUP1 SWAP2 SUB SWAP1 RETURN JUMPDEST CALLVALUE DUP1 ISZERO PUSH2 0xC3 JUMPI PUSH1 0x0 DUP1 REVERT JUMPDEST POP PUSH2 0xCC PUSH2 0x157 JUMP JUMPDEST PUSH1 0x40 MLOAD PUSH2 0xD9 SWAP2 SWAP1 PUSH2 0x354 JUMP JUMPDEST PUSH1 0x40 MLOAD DUP1 SWAP2 SUB SWAP1 RETURN JUMPDEST CALLVALUE DUP1 ISZERO PUSH2 0xEE JUMPI PUSH1 0x0 DUP1 REVERT JUMPDEST POP PUSH2 0xF7 PUSH2 0x1E6 JUMP JUMPDEST PUSH1 0x40 MLOAD PUSH2 0x104 SWAP2 SWAP1 PUSH2 0x354 JUMP JUMPDEST PUSH1 0x40 MLOAD DUP1 SWAP2 SUB SWAP1 RETURN JUMPDEST PUSH2 0x115 PUSH2 0x28F JUMP JUMPDEST STOP JUMPDEST PUSH1 0x0 DUP1 PUSH2 0x122 PUSH2 0x1E6 JUMP JUMPDEST SWAP1 POP PUSH1 0x0 PUSH8 0xDE0B6B3A7640000 DUP5 DUP4 PUSH2 0x13B SWAP2 SWAP1 PUSH2 0x39E JUMP JUMPDEST PUSH2 0x145 SWAP2 SWAP1 PUSH2 0x40F JUMP JUMPDEST SWAP1 POP DUP1 SWAP3 POP POP POP SWAP2 SWAP1 POP JUMP JUMPDEST PUSH1 0x0 SLOAD DUP2 JUMP JUMPDEST PUSH1 0x0 DUP1 PUSH20 0xD4A33860578DE61DBABDC8BFDB98FD742FA7028E SWAP1 POP DUP1 PUSH20 0xFFFFFFFFFFFFFFFFFFFFFFFFFFFFFFFFFFFFFFFF AND PUSH4 0x54FD4D50 PUSH1 0x40 MLOAD DUP2 PUSH4 0xFFFFFFFF AND PUSH1 0xE0 SHL DUP2 MSTORE PUSH1 0x4 ADD PUSH1 0x20 PUSH1 0x40 MLOAD DUP1 DUP4 SUB DUP2 DUP7 GAS STATICCALL ISZERO DUP1 ISZERO PUSH2 0x1BC JUMPI RETURNDATASIZE PUSH1 0x0 DUP1 RETURNDATACOPY RETURNDATASIZE PUSH1 0x0 REVERT JUMPDEST POP POP POP POP PUSH1 0x40 MLOAD RETURNDATASIZE PUSH1 0x1F NOT PUSH1 0x1F DUP3 ADD AND DUP3 ADD DUP1 PUSH1 0x40 MSTORE POP DUP2 ADD SWAP1 PUSH2 0x1E0 SWAP2 SWAP1 PUSH2 0x455 JUMP JUMPDEST SWAP2 POP POP SWAP1 JUMP JUMPDEST PUSH1 0x0 DUP1 PUSH20 0xD4A33860578DE61DBABDC8BFDB98FD742FA7028E SWAP1 POP PUSH1 0x0 DUP2 PUSH20 0xFFFFFFFFFFFFFFFFFFFFFFFFFFFFFFFFFFFFFFFF AND PUSH4 0xFEAF968C PUSH1 0x40 MLOAD DUP2 PUSH4 0xFFFFFFFF AND PUSH1 0xE0 SHL DUP2 MSTORE PUSH1 0x4 ADD PUSH1 0xA0 PUSH1 0x40 MLOAD DUP1 DUP4 SUB DUP2 DUP7 GAS STATICCALL ISZERO DUP1 ISZERO PUSH2 0x24D JUMPI RETURNDATASIZE PUSH1 0x0 DUP1 RETURNDATACOPY RETURNDATASIZE PUSH1 0x0 REVERT JUMPDEST POP POP POP POP PUSH1 0x40 MLOAD RETURNDATASIZE PUSH1 0x1F NOT PUSH1 0x1F DUP3 ADD AND DUP3 ADD DUP1 PUSH1 0x40 MSTORE POP DUP2 ADD SWAP1 PUSH2 0x271 SWAP2 SWAP1 PUSH2 0x4FA JUMP JUMPDEST POP POP POP SWAP2 POP POP PUSH5 0x2540BE400 DUP2 PUSH2 0x288 SWAP2 SWAP1 PUSH2 0x575 JUMP JUMPDEST SWAP3 POP POP POP SWAP1 JUMP JUMPDEST PUSH1 0x0 SLOAD PUSH2 0x29B CALLVALUE PUSH2 0x117 JUMP JUMPDEST GT PUSH2 0x2DB JUMPI PUSH1 0x40 MLOAD PUSH32 0x8C379A000000000000000000000000000000000000000000000000000000000 DUP2 MSTORE PUSH1 0x4 ADD PUSH2 0x2D2 SWAP1 PUSH2 0x64A JUMP JUMPDEST PUSH1 0x40 MLOAD DUP1 SWAP2 SUB SWAP1 REVERT JUMPDEST JUMP JUMPDEST PUSH1 0x0 DUP1 REVERT JUMPDEST PUSH1 0x0 DUP2 SWAP1 POP SWAP2 SWAP1 POP JUMP JUMPDEST PUSH2 0x2F5 DUP2 PUSH2 0x2E2 JUMP JUMPDEST DUP2 EQ PUSH2 0x300 JUMPI PUSH1 0x0 DUP1 REVERT JUMPDEST POP JUMP JUMPDEST PUSH1 0x0 DUP2 CALLDATALOAD SWAP1 POP PUSH2 0x312 DUP2 PUSH2 0x2EC JUMP JUMPDEST SWAP3 SWAP2 POP POP JUMP JUMPDEST PUSH1 0x0 PUSH1 0x20 DUP3 DUP5 SUB SLT ISZERO PUSH2 0x32E JUMPI PUSH2 0x32D PUSH2 0x2DD JUMP JUMPDEST JUMPDEST PUSH1 0x0 PUSH2 0x33C DUP5 DUP3 DUP6 ADD PUSH2 0x303 JUMP JUMPDEST SWAP2 POP POP SWAP3 SWAP2 POP POP JUMP JUMPDEST PUSH2 0x34E DUP2 PUSH2 0x2E2 JUMP JUMPDEST DUP3 MSTORE POP POP JUMP JUMPDEST PUSH1 0x0 PUSH1 0x20 DUP3 ADD SWAP1 POP PUSH2 0x369 PUSH1 0x0 DUP4 ADD DUP5 PUSH2 0x345 JUMP JUMPDEST SWAP3 SWAP2 POP POP JUMP JUMPDEST PUSH32 0x4E487B7100000000000000000000000000000000000000000000000000000000 PUSH1 0x0 MSTORE PUSH1 0x11 PUSH1 0x4 MSTORE PUSH1 0x24 PUSH1 0x0 REVERT JUMPDEST PUSH1 0x0 PUSH2 0x3A9 DUP3 PUSH2 0x2E2 JUMP JUMPDEST SWAP2 POP PUSH2 0x3B4 DUP4 PUSH2 0x2E2 JUMP JUMPDEST SWAP3 POP DUP3 DUP3 MUL PUSH2 0x3C2 DUP2 PUSH2 0x2E2 JUMP JUMPDEST SWAP2 POP DUP3 DUP3 DIV DUP5 EQ DUP4 ISZERO OR PUSH2 0x3D9 JUMPI PUSH2 0x3D8 PUSH2 0x36F JUMP JUMPDEST JUMPDEST POP SWAP3 SWAP2 POP POP JUMP JUMPDEST PUSH32 0x4E487B7100000000000000000000000000000000000000000000000000000000 PUSH1 0x0 MSTORE PUSH1 0x12 PUSH1 0x4 MSTORE PUSH1 0x24 PUSH1 0x0 REVERT JUMPDEST PUSH1 0x0 PUSH2 0x41A DUP3 PUSH2 0x2E2 JUMP JUMPDEST SWAP2 POP PUSH2 0x425 DUP4 PUSH2 0x2E2 JUMP JUMPDEST SWAP3 POP DUP3 PUSH2 0x435 JUMPI PUSH2 0x434 PUSH2 0x3E0 JUMP JUMPDEST JUMPDEST DUP3 DUP3 DIV SWAP1 POP SWAP3 SWAP2 POP POP JUMP JUMPDEST PUSH1 0x0 DUP2 MLOAD SWAP1 POP PUSH2 0x44F DUP2 PUSH2 0x2EC JUMP JUMPDEST SWAP3 SWAP2 POP POP JUMP JUMPDEST PUSH1 0x0 PUSH1 0x20 DUP3 DUP5 SUB SLT ISZERO PUSH2 0x46B JUMPI PUSH2 0x46A PUSH2 0x2DD JUMP JUMPDEST JUMPDEST PUSH1 0x0 PUSH2 0x479 DUP5 DUP3 DUP6 ADD PUSH2 0x440 JUMP JUMPDEST SWAP2 POP POP SWAP3 SWAP2 POP POP JUMP JUMPDEST PUSH1 0x0 PUSH10 0xFFFFFFFFFFFFFFFFFFFF DUP3 AND SWAP1 POP SWAP2 SWAP1 POP JUMP JUMPDEST PUSH2 0x4A1 DUP2 PUSH2 0x482 JUMP JUMPDEST DUP2 EQ PUSH2 0x4AC JUMPI PUSH1 0x0 DUP1 REVERT JUMPDEST POP JUMP JUMPDEST PUSH1 0x0 DUP2 MLOAD SWAP1 POP PUSH2 0x4BE DUP2 PUSH2 0x498 JUMP JUMPDEST SWAP3 SWAP2 POP POP JUMP JUMPDEST PUSH1 0x0 DUP2 SWAP1 POP SWAP2 SWAP1 POP JUMP JUMPDEST PUSH2 0x4D7 DUP2 PUSH2 0x4C4 JUMP JUMPDEST DUP2 EQ PUSH2 0x4E2 JUMPI PUSH1 0x0 DUP1 REVERT JUMPDEST POP JUMP JUMPDEST PUSH1 0x0 DUP2 MLOAD SWAP1 POP PUSH2 0x4F4 DUP2 PUSH2 0x4CE JUMP JUMPDEST SWAP3 SWAP2 POP POP JUMP JUMPDEST PUSH1 0x0 DUP1 PUSH1 0x0 DUP1 PUSH1 0x0 PUSH1 0xA0 DUP7 DUP9 SUB SLT ISZERO PUSH2 0x516 JUMPI PUSH2 0x515 PUSH2 0x2DD JUMP JUMPDEST JUMPDEST PUSH1 0x0 PUSH2 0x524 DUP9 DUP3 DUP10 ADD PUSH2 0x4AF JUMP JUMPDEST SWAP6 POP POP PUSH1 0x20 PUSH2 0x535 DUP9 DUP3 DUP10 ADD PUSH2 0x4E5 JUMP JUMPDEST SWAP5 POP POP PUSH1 0x40 PUSH2 0x546 DUP9 DUP3 DUP10 ADD PUSH2 0x440 JUMP JUMPDEST SWAP4 POP POP PUSH1 0x60 PUSH2 0x557 DUP9 DUP3 DUP10 ADD PUSH2 0x440 JUMP JUMPDEST SWAP3 POP POP PUSH1 0x80 PUSH2 0x568 DUP9 DUP3 DUP10 ADD PUSH2 0x4AF JUMP JUMPDEST SWAP2 POP POP SWAP3 SWAP6 POP SWAP3 SWAP6 SWAP1 SWAP4 POP JUMP JUMPDEST PUSH1 0x0 PUSH2 0x580 DUP3 PUSH2 0x4C4 JUMP JUMPDEST SWAP2 POP PUSH2 0x58B DUP4 PUSH2 0x4C4 JUMP JUMPDEST SWAP3 POP DUP3 DUP3 MUL PUSH2 0x599 DUP2 PUSH2 0x4C4 JUMP JUMPDEST SWAP2 POP PUSH32 0x8000000000000000000000000000000000000000000000000000000000000000 DUP5 EQ PUSH1 0x0 DUP5 SLT AND ISZERO PUSH2 0x5D1 JUMPI PUSH2 0x5D0 PUSH2 0x36F JUMP JUMPDEST JUMPDEST DUP3 DUP3 SDIV DUP5 EQ DUP4 ISZERO OR PUSH2 0x5E6 JUMPI PUSH2 0x5E5 PUSH2 0x36F JUMP JUMPDEST JUMPDEST POP SWAP3 SWAP2 POP POP JUMP JUMPDEST PUSH1 0x0 DUP3 DUP3 MSTORE PUSH1 0x20 DUP3 ADD SWAP1 POP SWAP3 SWAP2 POP POP JUMP JUMPDEST PUSH32 0x6469646E2774207265636569766520656E6F7567682076616C75650000000000 PUSH1 0x0 DUP3 ADD MSTORE POP JUMP JUMPDEST PUSH1 0x0 PUSH2 0x634 PUSH1 0x1B DUP4 PUSH2 0x5ED JUMP JUMPDEST SWAP2 POP PUSH2 0x63F DUP3 PUSH2 0x5FE JUMP JUMPDEST PUSH1 0x20 DUP3 ADD SWAP1 POP SWAP2 SWAP1 POP JUMP JUMPDEST PUSH1 0x0 PUSH1 0x20 DUP3 ADD SWAP1 POP DUP2 DUP2 SUB PUSH1 0x0 DUP4 ADD MSTORE PUSH2 0x663 DUP2 PUSH2 0x627 JUMP JUMPDEST SWAP1 POP SWAP2 SWAP1 POP JUMP INVALID LOG2 PUSH5 0x6970667358 0x22 SLT KECCAK256 0xA5 0x23 DUP9 GASPRICE PUSH23 0x80B2D067EA612E9A2275F86D37ABEB36E31DE969657589 0xD2 EXTCODESIZE 0xCE PUSH1 0x64 PUSH20 0x6F6C634300081100330000000000000000000000 "
		},
		"gasEstimates": {
			"creation": {
				"codeDepositCost": "339200",
				"executionCost": "22480",
				"totalCost": "361680"
			},
			"external": {
				"fund()": "infinite",
				"getConversion(uint256)": "infinite",
				"getPrice()": "infinite",
				"getVersion()": "infinite",
				"minimumUsd()": "2429"
			}
		},
		"methodIdentifiers": {
			"fund()": "b60d4288",
			"getConversion(uint256)": "047abed7",
			"getPrice()": "98d5fdca",
			"getVersion()": "0d8e6e2c",
			"minimumUsd()": "098de820"
		}
	},
	"abi": [
		{
			"inputs": [],
			"name": "fund",
			"outputs": [],
			"stateMutability": "payable",
			"type": "function"
		},
		{
			"inputs": [
				{
					"internalType": "uint256",
					"name": "ethAmount",
					"type": "uint256"
				}
			],
			"name": "getConversion",
			"outputs": [
				{
					"internalType": "uint256",
					"name": "",
					"type": "uint256"
				}
			],
			"stateMutability": "view",
			"type": "function"
		},
		{
			"inputs": [],
			"name": "getPrice",
			"outputs": [
				{
					"internalType": "uint256",
					"name": "",
					"type": "uint256"
				}
			],
			"stateMutability": "view",
			"type": "function"
		},
		{
			"inputs": [],
			"name": "getVersion",
			"outputs": [
				{
					"internalType": "uint256",
					"name": "",
					"type": "uint256"
				}
			],
			"stateMutability": "view",
			"type": "function"
		},
		{
			"inputs": [],
			"name": "minimumUsd",
			"outputs": [
				{
					"internalType": "uint256",
					"name": "",
					"type": "uint256"
				}
			],
			"stateMutability": "view",
			"type": "function"
		}
	]
}